{
  "contractName": "Dealer",
  "abi": [
    {
      "constant": true,
      "inputs": [
        {
          "name": "",
          "type": "bytes32"
        }
      ],
      "name": "cars",
      "outputs": [
        {
          "name": "car_reg",
          "type": "string"
        },
        {
          "name": "car_owner",
          "type": "address"
        }
      ],
      "payable": false,
      "stateMutability": "view",
      "type": "function"
    },
    {
      "constant": true,
      "inputs": [],
      "name": "current_user",
      "outputs": [
        {
          "name": "",
          "type": "address"
        }
      ],
      "payable": false,
      "stateMutability": "view",
      "type": "function"
    },
    {
      "inputs": [],
      "payable": false,
      "stateMutability": "nonpayable",
      "type": "constructor"
    },
    {
      "constant": false,
      "inputs": [
        {
          "name": "_car",
          "type": "string"
        }
      ],
      "name": "addCar",
      "outputs": [],
      "payable": false,
      "stateMutability": "nonpayable",
      "type": "function"
    },
    {
      "constant": true,
      "inputs": [
        {
          "name": "_car",
          "type": "string"
        }
      ],
      "name": "getCar",
      "outputs": [
        {
          "name": "",
          "type": "string"
        },
        {
          "name": "",
          "type": "address"
        }
      ],
      "payable": false,
      "stateMutability": "view",
      "type": "function"
    },
    {
      "constant": false,
      "inputs": [
        {
          "name": "_car",
          "type": "string"
        },
        {
          "name": "newOwner",
          "type": "address"
        }
      ],
      "name": "transfer_ownership_init",
      "outputs": [],
      "payable": false,
      "stateMutability": "nonpayable",
      "type": "function"
    }
  ],
  "bytecode": "0x608060405234801561001057600080fd5b50336000806101000a81548173ffffffffffffffffffffffffffffffffffffffff021916908373ffffffffffffffffffffffffffffffffffffffff160217905550610d07806100606000396000f30060806040526004361061006d576000357c0100000000000000000000000000000000000000000000000000000000900463ffffffff16806305b9482e146100725780632f4e81c6146100fb578063479487e3146101d857806363f71d8b146102ed578063bc17927a14610356575b600080fd5b34801561007e57600080fd5b506100f9600480360381019080803590602001908201803590602001908080601f0160208091040260200160405190810160405280939291908181526020018383808284378201915050505050509192919290803573ffffffffffffffffffffffffffffffffffffffff1690602001909291905050506103ad565b005b34801561010757600080fd5b5061012a60048036038101908080356000191690602001909291905050506104e0565b60405180806020018373ffffffffffffffffffffffffffffffffffffffff1673ffffffffffffffffffffffffffffffffffffffff168152602001828103825284818151815260200191508051906020019080838360005b8381101561019c578082015181840152602081019050610181565b50505050905090810190601f1680156101c95780820380516001836020036101000a031916815260200191505b50935050505060405180910390f35b3480156101e457600080fd5b5061023f600480360381019080803590602001908201803590602001908080601f01602080910402602001604051908101604052809392919081815260200183838082843782019150505050505091929192905050506105bc565b60405180806020018373ffffffffffffffffffffffffffffffffffffffff1673ffffffffffffffffffffffffffffffffffffffff168152602001828103825284818151815260200191508051906020019080838360005b838110156102b1578082015181840152602081019050610296565b50505050905090810190601f1680156102de5780820380516001836020036101000a031916815260200191505b50935050505060405180910390f35b3480156102f957600080fd5b50610354600480360381019080803590602001908201803590602001908080601f016020809104026020016040519081016040528093929190818152602001838380828437820191505050505050919291929050505061088e565b005b34801561036257600080fd5b5061036b610a24565b604051808273ffffffffffffffffffffffffffffffffffffffff1673ffffffffffffffffffffffffffffffffffffffff16815260200191505060405180910390f35b6104dc60016000846040516020018080602001828103825283818151815260200191508051906020019080838360005b838110156103f85780820151818401526020810190506103dd565b50505050905090810190601f1680156104255780820380516001836020036101000a031916815260200191505b50925050506040516020818303038152906040526040518082805190602001908083835b60208310151561046e5780518252602082019150602081019050602083039250610449565b6001836020036101000a03801982511681845116808217855250505050505090500191505060405180910390206000191660001916815260200190815260200160002060010160009054906101000a900473ffffffffffffffffffffffffffffffffffffffff168383610a49565b5050565b6001602052806000526040600020600091509050806000018054600181600116156101000203166002900480601f01602080910402602001604051908101604052809291908181526020018280546001816001161561010002031660029004801561058c5780601f106105615761010080835404028352916020019161058c565b820191906000526020600020905b81548152906001019060200180831161056f57829003601f168201915b5050505050908060010160009054906101000a900473ffffffffffffffffffffffffffffffffffffffff16905082565b6060600060016000846040516020018080602001828103825283818151815260200191508051906020019080838360005b838110156106085780820151818401526020810190506105ed565b50505050905090810190601f1680156106355780820380516001836020036101000a031916815260200191505b50925050506040516020818303038152906040526040518082805190602001908083835b60208310151561067e5780518252602082019150602081019050602083039250610659565b6001836020036101000a03801982511681845116808217855250505050505090500191505060405180910390206000191660001916815260200190815260200160002060000160016000856040516020018080602001828103825283818151815260200191508051906020019080838360005b8381101561070c5780820151818401526020810190506106f1565b50505050905090810190601f1680156107395780820380516001836020036101000a031916815260200191505b50925050506040516020818303038152906040526040518082805190602001908083835b602083101515610782578051825260208201915060208101905060208303925061075d565b6001836020036101000a03801982511681845116808217855250505050505090500191505060405180910390206000191660001916815260200190815260200160002060010160009054906101000a900473ffffffffffffffffffffffffffffffffffffffff16818054600181600116156101000203166002900480601f01602080910402602001604051908101604052809291908181526020018280546001816001161561010002031660029004801561087e5780601f106108535761010080835404028352916020019161087e565b820191906000526020600020905b81548152906001019060200180831161086157829003601f168201915b5050505050915091509150915091565b60408051908101604052808281526020013373ffffffffffffffffffffffffffffffffffffffff1681525060016000836040516020018080602001828103825283818151815260200191508051906020019080838360005b838110156109015780820151818401526020810190506108e6565b50505050905090810190601f16801561092e5780820380516001836020036101000a031916815260200191505b50925050506040516020818303038152906040526040518082805190602001908083835b6020831015156109775780518252602082019150602081019050602083039250610952565b6001836020036101000a03801982511681845116808217855250505050505090500191505060405180910390206000191660001916815260200190815260200160002060008201518160000190805190602001906109d6929190610c36565b5060208201518160010160006101000a81548173ffffffffffffffffffffffffffffffffffffffff021916908373ffffffffffffffffffffffffffffffffffffffff16021790555090505050565b6000809054906101000a900473ffffffffffffffffffffffffffffffffffffffff1681565b823373ffffffffffffffffffffffffffffffffffffffff168173ffffffffffffffffffffffffffffffffffffffff16141515610aed576040517f08c379a00000000000000000000000000000000000000000000000000000000081526004018080602001828103825260138152602001807f53656e646572206e6f7420417070726f7665640000000000000000000000000081525060200191505060405180910390fd5b8160016000856040516020018080602001828103825283818151815260200191508051906020019080838360005b83811015610b36578082015181840152602081019050610b1b565b50505050905090810190601f168015610b635780820380516001836020036101000a031916815260200191505b50925050506040516020818303038152906040526040518082805190602001908083835b602083101515610bac5780518252602082019150602081019050602083039250610b87565b6001836020036101000a03801982511681845116808217855250505050505090500191505060405180910390206000191660001916815260200190815260200160002060010160006101000a81548173ffffffffffffffffffffffffffffffffffffffff021916908373ffffffffffffffffffffffffffffffffffffffff16021790555050505050565b828054600181600116156101000203166002900490600052602060002090601f016020900481019282601f10610c7757805160ff1916838001178555610ca5565b82800160010185558215610ca5579182015b82811115610ca4578251825591602001919060010190610c89565b5b509050610cb29190610cb6565b5090565b610cd891905b80821115610cd4576000816000905550600101610cbc565b5090565b905600a165627a7a7230582054d85a918a53aee45c77819770d805cdbb61bf2f12d26afcb288f7792c3e87020029",
  "source": "pragma solidity >=0.4.21 <0.7.0;\n\ncontract Dealer{\n    struct Car{\n        string car_reg;\n        address car_owner;\n    }\n    address public current_user;\n    mapping (bytes32 => Car) public cars;\n    constructor() public{\n        current_user = msg.sender;\n    }\n    //modifer\n    modifier transfer_ownership_verifier(address verify_user){\n        require(verify_user == msg.sender, \"Sender not Approved\");\n        _;\n    }\n    function addCar(string memory _car) public{\n        cars[keccak256(abi.encode(_car))] = Car(_car, msg.sender);\n    }\n    function getCar(string memory _car) public view returns (string memory, address){\n        return (cars[keccak256(abi.encode(_car))].car_reg,cars[keccak256(abi.encode(_car))].car_owner);\n    }\n    function transfer_ownership_init(string memory _car, address newOwner) public{\n        transfer_ownership(cars[keccak256(abi.encode(_car))].car_owner, _car, newOwner);\n    }\n    function transfer_ownership(address car_owner, string memory _car, address newOwner) private\n    transfer_ownership_verifier(car_owner)\n    {\n        cars[keccak256(abi.encode(_car))].car_owner = newOwner;\n    }\n}\n",
  "sourcePath": "/home/achal/Ethereum/car-dealer/contracts/Dealer.sol",
  "compiler": {
    "name": "solc",
    "version": "0.4.26+commit.4563c3fc.Emscripten.clang"
  },
  "schemaVersion": "2.0.3",
  "updatedAt": "2020-02-17T07:07:31.691Z"
}